S01E000052544F532D4F4C45442D58706C61696E65642D50726F2E73726563AD
S214400000682E4020711440006F1440006F1440006A
S2144000106F1440006F1440006F1440000000000052
S21440002000000000000000000000000049184000EA
S2144000306F14400000000000E918400051194000CD
S2144000406F1440006F1440006F1440006F1440005F
S2144000506F1440006F1440006F1440006F1440004F
S2144000606F14400000000000611140007511400010
S214400070891140006F1440006F1440006F14400018
S2144000809D114000B11140006F1440006F144000B5
S2144000906F1440006F1440006F1440006F1440000F
S2144000A06F1440006F1440006F1440006F144000FF
S2144000B06F1440006F1440006F1440006F144000EF
S2144000C06F1440006F1440006F1440006F144000DF
S2144000D0000000006F144000000000006F14400055
S2144000E06F1440006F1440006F1440006F144000BF
S2144000F06F1440006F1440006F1440006F144000AF
S2144001006F1440006F1440006F1440006F1440009E
S2144001106F144000000000000000000000000000D7
S2144001206F1440006F1440006F1440006F1440007E
S2144001306F144000000000006F1440006F14400031
S21440014010B5054C237833B9044B13B10448AFF3CC
S21440015000800123237010BDD80940200000000015
S2144001601CB740000C4B43B10C480D4910B5AFF3DB
S21440017000800C48036823B910BD0A48036833B9A9
S2144001807047094B002BF7D0BDE810401847064B88
S214400190002BF5D0184700BF000000001CB74000F9
S2144001A0DC0940201CB740000000000008B5074BA3
S2144001B0984203D0064B984204D008BD1520054B04
S2144001C0984708BD2A20034B9847F6E70080004032
S2144001D000800540E5124000436823F470234360E6
S2144001E04368090401F4702119434160704730B4F4
S2144001F043F69924056915F0020F03D1013CF9D165
S21440020001200CE0446814F0020F06D0120402F4F9
S214400210702211430BB141F08071C160002030BCA8
S214400220704732B900EB8100036B23F00103036390
S214400230704700EB8100036B43F001030363704794
S21440024032B900EB8100036B23F00203036370476F
S21440025000EB8100036B43F0020303637047042AFC
S21440026003D06AB1082A16D0704700EB8100036BB2
S21440027023F008030363036B43F0040303637047F0
S21440028000EB8100036B23F008030363036B23F04A
S21440029004030363704700EB8100036B43F00803DD
S2144002A00363E1E700EB81010B6B23F0F0030B6384
S2144002B00B6B1A430A637047431E1944B1FBF0F0B8
S2144002C0431EFE2B94BF00B24FF0FF3070477AB10A
S2144002D010B4144600EB81010B6B23F47F430B6391
S2144002E00A6B42EA04220A6300205DF8044B70471A
S2144002F04FF0FF3070470000284B99424BD8A3F58B
S2144003007A5399422DD910B4254CA4FB0234A40B41
S214400310033C244B0B449B00B2FBF3F2033AFF2C06
S2144003201DD9002101316408FF2C01D90629F9D9CD
S214400330FF2A07D9062905D801315208FF2A01D9D4
S2144003400629F9D913029BB2090401F4E0210B43B4
S214400350E4B22343036100205DF8044B704700215C
S214400360E6E74900B2FBF1F2033AFF2A11D900232F
S21440037001335208FF2A01D9062BF9D9110289B256
S2144003801B0403F4E0230B43D2B21A43026100205D
S21440039070470023F2E70120704700BF801A06002E
S2144003A0F11976050012FD3F08B54FF0FF32826224
S2144003B0026A80220260026B0822026020220260EB
S2144003C0042202600A684968034B9847012814BF14
S2144003D00020012008BD00BFF9024000CA68002A7C
S2144003E04CD070B48C68002646604B681B0203F401
S2144003F0407343F480530D7C2D0405F4FE052B43D7
S2144004004360C6604D685DB10B78012D02DD4E78C5
S21440041046EA0323022D04DD897841EA032300E0FF
S2144004200023C36001230360022512E0056013F039
S214400430020F1BD0036B2370036A13F0010FFBD02F
S214400440036A002070BC7047036B04F8013B013A16
S214400450F2D0036A13F4807F14D147F23051012A58
S214400460E4D013F0020FEFD1002AE5D0036A13F46C
S214400470807F05D10139F2D10920E3E7012070479A
S2144004800520DFE70520DDE7CB68002B43D070B4BE
S2144004908C68002646600A7C120402F4FE024D6810
S2144004A02D0205F440752A434260C6604D685DB132
S2144004B00A78012D02DD4E7846EA0222022D04DD3E
S2144004C0897841EA022200E00022C26004E014F883
S2144004D0012B4263013B0FD0026A12F4807F1ED18B
S2144004E012F0040FF3D1026A12F4807F15D112F095
S2144004F0040FECD1002BF6D1036A13F4807F11D1A0
S21440050013F0040FF8D002230360036A13F0010FC0
S214400510FBD0002004E001207047052000E00520C5
S21440052070BC70470520FBE700B587B0002306AADD
S21440053002F8153D0392012204928DF814108DF8AE
S2144005400430029301A9024B984707B05DF804FBBC
S214400550890440004FF07E53436100238361C361AA
S214400560036243628362C362012280F830200A4AF3
S2144005704263C363036443648364C36403650023C4
S21440058080F85430836580F85C3080F85D300366D0
S21440059080F86430704700BF0000204138B52DED2C
S2144005A0028B04460D460B78037091ED018A80ED70
S2144005B0018AD1ED027AF5EE407AF1EE10FA01D0DA
S2144005C00B6903BB234BA360D5ED037AF5EE407A67
S2144005D0F1EE10FA01D02B6943BB1E4BE3602B694A
S2144005E0236194F830300BB984ED0D8AF2EE047A2C
S2144005F077EEC87AF0EE086A87EEA67A84ED0E7A31
S214400600BDEC028B38BD9FED147A67EE877A17EE05
S214400610900A124B9847F6EE007A07EE100A67EEFD
S214400620277A67EEA77AC4ED027ACDE79FED0A7A7D
S21440063067EE877A17EE900A084B9847F6EE007AF0
S21440064007EE100A67EE277A67EEA77AC4ED037ABC
S214400650C5E700BFFFFF7F7F35FA8E3C013D400077
S21440066070B586B0064601AC064D0FCD0FC42B685C
S214400670236001A93046044B98473046034B9847C1
S21440068006B070BD30AC40009D05400055054000AA
S214400690014B1860704700BFF4094020024B1B68AE
S2144006A003EBC01042547047F4094020024B1B68CD
S2144006B003EBC010405C7047F40940202DE9F0473A
S2144006C08418802C02DDC0F18004E2B222B3CD084B
S2144006D0A1EBC501012606FA01F1CEB2012B1DD0D1
S2144006E0002B35D0022B17D10138C7B2D419E4B24B
S2144006F0DFF890A04FF00009DFF88C8021462846AE
S214400700D04786EA00024B46D2B221462846C0472A
S214400710013CE4B2BC42F1D1BDE8F0870138C7B233
S214400720D419E4B2DFF85CA04FF00009DFF8588037
S21440073021462846D04746EA00024B46D2B22146DA
S2144007402846C047013CE4B2BC42F1D1BDE8F08740
S2144007500138C7B2D419E4B2DFF82880CE43DFF8B8
S214400760289021462846C04706EA00020023D2B217
S21440077021462846C847013CE4B2BC42F1D1BDE818
S214400780F08700BFBD094000B90840002DE9F84396
S2144007909DF820708BB11C46904606464D1EEDB225
S2144007A02C44E4B2DFF818903B4642462146304699
S2144007B0C847013CE4B2AC42F6D1BDE8F88300BF7E
S2144007C0BD0640002DE9F04F83B00446884691466A
S2144007D09B465B7A9BF8082000210091494640469C
S2144007E0214DA8479BF8003013B103B0BDE8F08F09
S2144007F09BF80820D30812F0070F18BF01339BF868
S21440080009A09BF80A70E71B17FB0AF717FB03F7CC
S214400810DBF8043013FA87F71FE06400E4B20135D2
S214400820EBB29E4210D9EBB208EB0300C0B213F015
S214400830070F08BF17F8014B14F0800FEDD00122C8
S21440084049460A4B9847E8E709F101095FFA89F9F2
S2144008500AF1FF3A1AF0FF0AC7D09BF80860002E4C
S214400860F2D000252C46DEE78D07400059094000AF
S2144008702DE9F843044690461D4689460D4F0E46E0
S21440088008E06A7A013242445FFA82F8B14614F8C8
S214400890013F6BB120780A28F3D00D28F7D02B46BD
S2144008A042464946B8472B7A99445FFA89F9EEE7BB
S2144008B0BDE8F883C507400070B504460D461646A9
S2144008C01BB90D4B9847B04215D0324629462046B4
S2144008D00A4B984704F00F0040F0B000084CA04781
S2144008E0C5F3021040F01000A04705F00F00A047E7
S2144008F03046044B984770BDAD0640009D0640000C
S214400900C9094000E90B40002DE9F0410D480E4B67
S21440091098470E4B984740200D4B984700254FF080
S21440092001082F460B4E002443463A46E1B228467D
S214400930B0470134802CF7D10135EDB2042DF2D109
S214400940BDE8F081F809402091064000090A4000C1
S214400950C9094000B9084000C3092AD11F2928D830
S2144009602DE9F04114460546CE08A1EBC60101220A
S21440097002FA01F75FFA87F8014630460D4B984772
S2144009800246012C09D064B1022C0ED00023294621
S2144009903046094CA047BDE8F08148EA0002D2B292
S2144009A0F4E720EA0702D2B2F0E788EA0002D2B2C1
S2144009B0ECE77047AD064000B908400008B5014B6B
S2144009C0984708BDAD06400038B505460822094B95
S2144009D05A63094C01212046084B984701231A4682
S2144009E029462046064CA0474FF4FD70054B9847D5
S2144009F038BD00BF00100E4000800040D9014000C6
S214400A00EF014000010040202DE9F843664D4FF4C9
S214400A1000362E61C5F8A060644B08271F61C3F8F6
S214400A20A0706E66C5F890606E656E62C5F88060B0
S214400A302A6F22F400322A676A6F22F400326A670D
S214400A405F66C3F890705F655F62C3F880701A6F28
S214400A5022F008021A675A6F22F008025A671F608F
S214400A602E601F632E63DFF87C8100234FF48002E4
S214400A704FF0805140464E4CA04700234FF40012A2
S214400A804FF080514046A04700234FF000724FF091
S214400A9080514046A04700234FF480024FF08051DB
S214400AA04046A04700234FF400124FF08051404686
S214400AB0A04700234FF000724FF080514046A047B9
S214400AC03C4C4FF00209C4F800904FF08008C4F840
S214400AD00080636843F0010363603A460121204684
S214400AE0354B9847002201212046344B9847002238
S214400AF001212046324B9847636823F00203636027
S214400B000022012120462F4B9847636823F080033C
S214400B106360636843F0100363602B492B482C4B9B
S214400B209847C2B2012120462A4B984720462A4B76
S214400B309847012323606E6340F6B830274CA047A1
S214400B402E6340F6B830A0472E63A820244CA0471A
S214400B501F20A047D320A0470020A0474020A04702
S214400B60A120A047C820A047DA20A0474846A04773
S214400B708120A0478F20A047A420A047A620A047BA
S214400B80D520A0474046A0478D20A0471420A04728
S214400B90DB20A0474020A047D920A047F120A0470F
S214400BA0AF20A047BDE8F88300120E4000100E406C
S214400BB0D10F4000008000405F024000230240000A
S214400BC041024000A502400080D1F00880841E000B
S214400BD0B9024000CF024000AD0140000100402075
S214400BE0C909400000140E4038B505460822094B96
S214400BF01A63094C01212046084B984701231A46A0
S214400C0029462046064CA0474FF4FD70054B9847B2
S214400C1038BD00BF00100E4000800040D9014000A3
S214400C20EF0140000100402010B51048104B984797
S214400C303E2100200F4B98470F4CA0470028FCD081
S214400C400E4B98470E4A0F4B9A620F4CA04700280F
S214400C50FCD002200D4B984700200D4B98470D4B7B
S214400C6098470248024B984710BD00BF00A3E111C9
S214400C704516400061124000B5124000C5124000C3
S214400C80013F182000060E40D5124000C511400016
S214400C90FD114000391540002DE9F04180B90C4661
S214400CA09046002A0FDD8F18084E094D30682146C1
S214400CB02B6898470134BC42F8D14046BDE8F081E5
S214400CC04FF0FF38F9E78046F7E700BFF00D4020C9
S214400CD0E80D40200138022815D82DE9F0410E468F
S214400CE014469AB10D46DFF838800C4FD8F800000D
S214400CF015F8011B3B68984700280ADBA81B013CF7
S214400D00F4D1BDE8F0814FF0FF3070471046BDE8A3
S214400D10F0814FF0FF30BDE8F08100BFEC0D402081
S214400D20F00D4020F8B54FF400425C4B5A60BFF3DC
S214400D304F8FBFF36F8F5A4B0022C3F850225A6929
S214400D4042F400325A61BFF34F8FBFF36F8FD3F830
S214400D508070C7F34E3607F007000430C7F3C90764
S214400D60B7FA87FE0EF01F0EBFF34F8F4FF0FF34DB
S214400D7004FA00FC06FA00F004FA0EF407FA0EFE37
S214400D801D463A46734640EA0301C5F86012013AEA
S214400D902344B2F1FF3FF6D1013E6044B6F1FF3F37
S214400DA0EFD1BFF34F8F3E4B5A6942F480325A61BF
S214400DB0BFF34F8FBFF36F8F3A4A3B495160A1F55F
S214400DC080715160BFF34F8FBFF36F8FD3F890227F
S214400DD022F00102C3F89022D3F8942222F00102B6
S214400DE0C3F89422BFF34F8FBFF36F8F0A202F4C68
S214400DF0A0470B20A0470C20A0471020A04711205A
S214400E00A0472B4B4FF480721A61C3F8A0201A6398
S214400E10A3F580634FF400625A61C3F8A0205A6677
S214400E20C3F890205A651A62C3F88420196F21F4DB
S214400E3000611967596F21F400615967C3F8C020F3
S214400E40C3F8D420C3F8B0204FF400121A66C3F893
S214400E5090205A655A62C3F88020196F21F4001119
S214400E601967596F21F4001159675A60114AD2F830
S214400E70143143F01003C2F814310F4B10221A6697
S214400E80C3F890205A655A62C3F88020196F114300
S214400E901967596F114359675A60F8BD50180E408C
S214400EA000ED00E0000C0E400C08005AE512400031
S214400EB000120E400080084000100E40C0F884101B
S214400EC053004FF40042B2FBF3F2013AC2F30D0274
S214400ED0C0F88C2070470163704741637047426496
S214400EE0B1F1C05F3AD013D8B1F1006F25D0B1F15F
S214400EF0805F0AD1036F13430367436F416F0B4014
S214400F0023EA02034367426070470029FBD17047DB
S214400F10B1F1205F21D009D8B1F1005FF3D1036F62
S214400F2013430367436F13434367ECE7B1F1405FF6
S214400F3013D0B1F1605F10D0E5E710B4016F046FD5
S214400F40D34321401C4619400167436F416F0B4015
S214400F502340436742605DF8044B7047036F016F60
S214400F600B4023EA02030367436F13434367CAE712
S214400F70416412F0010F0DD1016612F00A0F0BD03A
S214400F80016212F0020F09D112F0080F08D0C0F823
S214400F90841005E04166F0E74162F2E7C0F8801051
S214400FA041610160704710B4019C41644CB90166D0
S214400FB04BB101654AB94163016101605DF8044B7C
S214400FC070474166F4E74165F4E70163F4E70000E3
S214400FD070B582B0054616461C46B1F1005F14D087
S214400FE00AD9B1F1405F24D0B1F1605F21D0B1F1B0
S214400FF0205F17D000201AE0B1F1805F05D0B1F134
S214401000C05F02D0B1F1006FF4D132462846114B92
S214401010984714F0010F02D12E66012007E06E6655
S214401020012004E01A4631460B4B9847012002B097
S21440103070BD04F001030093C4F38003B1F1605F18
S21440104014BF0022012231462846044CA047012006
S214401050EDE700BFDF0E4000710F4000A70F4000D5
S21440106012F0100F12D0C0F8B01012F0200F07D0B8
S214401070C0F8D41012F0400F05D0C0F8C01070472A
S214401080C0F8D010F6E7C0F8C4107047C0F8B410E7
S214401090704701647047C06C7047806C70470000B2
S2144010A02DE9F041044688460E4B984705462046B3
S2144010B00D4B9847054013D00C4C04F1600603E0F6
S2144010C0B4420DD010345DB120684045F8D1616817
S2144010D02942F5D0E3689847636825EA0305EFE7B9
S2144010E0BDE8F081971040009B104000F80B402070
S2144010F0F8B5184C2668062E2AD84FF0000C6446E1
S214401100154F04E00134E4B2A446A64209D3A646ED
S21440111025017D598D42F5D107EB04156D68954242
S214401120F0D10D4D4FEA0E1E05EB0E0445F80E109D
S2144011306260A3600699E1600136664505D01146B7
S2144011401A46064B98470020F8BD02490E60F6E75F
S2144011500120F8BD680C4020F80B4020611040008C
S21440116008B50A210148024B984708BD000E0E40BC
S214401170A110400008B50B210148024B984708BD16
S21440118000100E40A110400008B50C210148024B4B
S214401190984708BD00120E40A110400008B5102127
S2144011A00148024B984708BD00140E40A11040006D
S2144011B008B511210148024B984708BD00160E405D
S2144011C0A1104000032811D0042812D002280CBFDA
S2144011D04FF480710021084A136B23F440730B438D
S2144011E01363936E13F0080FFBD070474FF44071B3
S2144011F0F1E74FF40071EEE700060E40174A136B16
S21440120023F0700318431063936E13F0080F0AD14F
S2144012104FF4805311498A6E12F0080F03D1013BF8
S214401220F9D1012070470D4A136B23F0030343F0B6
S21440123002031363936E13F0080F0AD14FF48053E2
S21440124006498A6E12F0080F05D1013BF9D10120FC
S2144012507047002070470020704700BF00060E40D1
S214401260A0B90E48036A090289B20D4A1A400D4BCE
S2144012701343194301620246936E13F0010FFBD0ED
S214401280064A116A084B0B431362704703490B6AC0
S214401290064A1A40064B13430B62704700060E4040
S2144012A0FCFFC8FF0100370000003701FCFFC8FE06
S2144012B002003701024B986E00F48030704700BF42
S2144012C000060E404FF00052014B9A62704700BF36
S2144012D000060E40024B986E00F00200704700BFBA
S2144012E000060E403F281ED81F280CD8114B9A697E
S2144012F001238340934318D0012303FA00F00D4B9B
S21440130018610020704720380A4BD3F80821012383
S214401310834093430BD0012303FA00F0054BC3F8F8
S21440132000010020704701207047002070470020D1
S214401330704700BF00060E40436913F0020F02D00C
S214401340C1610020704701207047436913F0010FC8
S21440135003D083690B70002070470120704710B49B
S2144013600B01934214D9C9004B0803EBC202B2FBEF
S214401370F1F2D3085C1E4FF6FE718C4201D9012073
S21440138017E0416841F4002141600CE0012010E084
S214401390590801EBC202B2FBF3F2D3085C1E4FF6CB
S2144013A0FE718C42F2D8120402F4E0221A43026222
S2144013B000205DF8044B7047084BC0F8E43000232B
S2144013C043604362836288230360242303604FF4B0
S2144013D0807303604FF40023036070470041535509
S2144013E070B505460C4616460F4B984700220F4BE5
S2144013F01A60A4B13246216828460D4B98470246EB
S21440140078B96368A1680B4321690B43E1680B43D5
S21440141006490B6069680B436B60104670BD01223D
S214401420FBE70122F9E700BFB91340006C0C4020EF
S2144014305F134000402303607047102303607047EB
S214401440436913F0020F04D0C1F30801C1610020C4
S214401450704701207047436913F0010F05D0836938
S214401460C3F308030B600020704701207047FEE777
S21440147000B583B0254B264A9A4210D0254B234AC6
S2144014809A420CD2013B9B1A23F0030304331344C5
S2144014901F4951F8040B42F8040B9A42F9D11E4BEF
S2144014A01E4A9A420AD2013B9B1A23F00303043396
S2144014B01344002142F8041B9342FBD1184A194BAF
S2144014C023F07F039360EFF31083B3FA83F35B0953
S2144014D0019372B6BFF35F8F0022134B1A700199C7
S2144014E0124A136843F470031360BFF34F8FBFF381
S2144014F06F8F29B101220C4B1A70BFF35F8F62B613
S2144015000B4B98470B4B9847FEE700BF0000402028
S2144015101CB74000D8094020640E4020D80940201F
S21440152000ED00E0000040001800402088ED00E09C
S214401530D15C4000A13A40003B4B1B6B03F00303D9
S214401540012B1DD083B1022B36D0374B1B6B03F0DB
S2144015507003702B5FD0344B1A6B3449C2F30212BF
S2144015600B68D3400B607047314B5B6913F0800FBC
S21440157014BF4FF400424FF4FA422C4B1A60E4E793
S214401580294B1B6A13F0807F03D02A4A274B1A60E8
S214401590DBE7294A254B1A60234B1B6A03F070038E
S2144015A0102B05D0202BD0D1224A204B1A60CCE7F6
S2144015B0224A1E4B1A60C8E71B4B1B6A13F0807FFB
S2144015C016D01C4A194B1A60174B1B6B03F00303CB
S2144015D0022BBAD1144A916A926A1448C1F30A415E
S2144015E0036801FB0333D2B2B3FBF2F30360ACE70C
S2144015F0114A0E4B1A600C4B1B6A03F07003102BFB
S21440160005D0202BE0D10B4A084B1A60DCE70B4A8A
S214401610064B1A60D8E7054A13680949A1FB03132D
S2144016205B081360704700BF00060E401C00402059
S21440163010180E40001BB70000093D0000127A004B
S214401640ABAAAAAA164B984213D9164B984215D95C
S214401650154B984216D9154B984217D9144B9842B9
S21440166018D9144B984294BF134A144A144B1A6024
S21440167070474FF08062124B1A607047114A104B09
S2144016801A607047104A0E4B1A6070470F4A0C4B50
S2144016901A6070474FF00422094B1A60704700BF2B
S2144016A0BFF35E017FE7BD023FDB1C04FFCE7B0538
S2144016B0BFC2DA067FB639080005000400060004FB
S2144016C0000C0E4000010004000200040003000469
S2144016D00A4B1B6853B1094B1B681A1808499142BC
S2144016E008DB1046054A106018467047054A034B0B
S2144016F01A60F0E74FF0FF30704700BF700C402094
S214401700FCFF4520683040204FF0FF3070474FF4D4
S21440171000534B6000207047012070470020704700
S21440172000F1080343604FF0FF328260C3600361FC
S21440173000230360704700230361704743684B6093
S2144017409A688A609A6851609960086103680133B4
S2144017500360704730B40D68B5F1FF3F02D000F12A
S214401760080202E0026904E01A4653681C68A54273
S214401770FAD253684B6099608A605160086103688A
S2144017800133036030BC70470369426881689160EA
S2144017908268416851605A68904205D000220261D2
S2144017A0186801381860704782685A60F6E700008B
S2144017B00D4B1B68B3F1FF3F0AD04FF0800372B663
S2144017C083F31188BFF36F8FBFF34F8F62B6FEE788
S2144017D04FF0800372B683F31188BFF36F8FBFF369
S2144017E04F8F62B6FEE700BF2000402006480068E4
S2144017F0006880F3088862B661B6BFF34F8FBFF3C8
S2144018006F8F00DF00BF000008ED00E0DFF80C003F
S214401810016841F4700101607047000088ED00E007
S2144018204FF0807340F8043C40F8081C054B40F8E5
S2144018300C3C40F8202C6FF0020340F8243C44381F
S214401840704700BFB1174000064B19680868B0E8FB
S214401850F04F80F30988BFF36F8F4FF0000080F39E
S214401860118870477C0C4020704700BF4FF08003C3
S21440187072B683F31188BFF36F8FBFF34F8F62B694
S2144018800B4A136801331360012B0FD1094B1B68B9
S21440189013F0FF0F0AD04FF0800372B683F311881F
S2144018A0BFF36F8FBFF34F8F62B6FEE7704700BF40
S2144018B02000402004ED00E00A4B1B6853B94FF06F
S2144018C0800372B683F31188BFF36F8FBFF34F8FD9
S2144018D062B6FEE7013B034A13600BB983F31188F7
S2144018E0704700BF20004020EFF30980BFF36F8FA2
S2144018F0154B1A681EF0100F08BF20ED108A20E91D
S214401900F04F10604DF8043D4FF0800072B680F303
S2144019101188BFF34F8FBFF36F8F62B601F090F818
S2144019204FF0000080F3118808BC19680868B0E8DA
S214401930F04F1EF0100F08BFB0EC108A80F30988F5
S214401940BFF36F8F704700BF7C0C4020704700BFCE
S21440195008B5EFF311834FF0800272B682F3118818
S214401960BFF36F8FBFF34F8F62B6054B984718B1E2
S2144019704FF08052034B1A60002383F3118808BD52
S214401980AD26400004ED00E0034A044B1A600722EF
S214401990043B1A60704700BFBF27090014E000E010
S2144019A000B583B0254B1A78D2B20192FF221A7046
S2144019B01B78DBB28DF803309DF8033003F08003CC
S2144019C01F4A137007221F4B1A609DF8033013F00E
S2144019D0800F10D0062200E00A469DF803305B00D8
S2144019E0DBB28DF803309DF80330511E13F0800FA4
S2144019F0F2D1144B1A60134A13681B0203F4E063D7
S214401A001360019BDBB20D4A13700F4B1A6842F409
S214401A1060021A601A6842F060421A600B4B9847A0
S214401A2000220B4B1A600B4B98470B4A136843F047
S214401A3040431360094B9847094B984700E400E041
S214401A40740C4020780C402020ED00E089194000BE
S214401A50200040200D18400034EF00E0ED17400015
S214401A60B1174000EFF305830F2B11D9124A9B5C48
S214401A70DBB2124A12789A420AD94FF0800372B605
S214401A8083F31188BFF36F8FBFF34F8F62B6FEE7C5
S214401A900B4B1B6803F4E0630A4A126893420AD968
S214401AA04FF0800372B683F31188BFF36F8FBFF396
S214401AB04F8F62B6FEE77047F0E300E0740C4020BC
S214401AC00CED00E0780C402010B50446064B9847D5
S214401AD02046064B98470446054B98470CB120468F
S214401AE010BD044B9847FAE791264000215D400020
S214401AF0F9274000B736400048B110B50446044BBD
S214401B0098472046034B9847034B984710BD70476D
S214401B1091264000315D4000F927400038B5044624
S214401B201546026C5AB90368002B2ED140681B4BF1
S214401B30984700236360A36B0133A36338BD6DB938
S214401B408068174B9847A368226C1344A36062686A
S214401B5093421CD32368A3600020ECE7C068104B78
S214401B609847236C5B42E2681A44E26021688A42E6
S214401B7002D262681344E360022D0AD1A36B53B1CC
S214401B80A36B013BA3630020D5E70020D3E70020EA
S214401B90D1E70020CFE70020CDE700BF412E400030
S214401BA0A162400030B583B00190446D74B1A26B21
S214401BB0E36B9A4215D34FF0800372B683F31188D5
S214401BC0BFF36F8FBFF34F8F62B6FEE74FF08003D1
S214401BD072B683F31188BFF36F8FBFF34F8F62B631
S214401BE0FEE7A26B934203D80025284603B030BDDB
S214401BF00A4601A920460B4B98470546A36CB3F10D
S214401C00FF3F0AD1636A002BEFD004F12400064B55
S214401C109847002818BF0125E7E7A36C0133A36463
S214401C20E3E700BF1D1B4000152C4000026C72B15C
S214401C3010B50346C4681444C4604068844201D367
S214401C401868D8600846D968014B984710BD704759
S214401C50A1624000F8B50446224B9847A36C002B7F
S214401C601BDD214D214F224E0BE0636AABB104F1E0
S214401C702400B04778B9A36C013BA364A36C002B47
S214401C800BDD636D002BF0D000212046A8470128CD
S214401C90F1D1B847EFE7B847EDE74FF0FF33A3641D
S214401CA0144B98470F4B9847636C002B14DD236901
S214401CB093B104F110060E4D0C4F07E0636C013BE8
S214401CC06364636C002B07DD23692BB13046A8475D
S214401CD00028F3D0B847F1E74FF0FF336364054B75
S214401CE09847F8BD6D184000A51B4000712D400078
S214401CF0152C4000B918400038B508B304460D46C8
S214401D001D4B98472268216CE36B03FB01F3D01808
S214401D1060600020A063A2605B1A1344E3604FF04B
S214401D20FF336364A364FDB923692BB104F110004B
S214401D30124B984701280ED0114B9847012038BDCA
S214401D404FF0800372B683F31188BFF36F8FBFF3F3
S214401D504F8F62B6FEE74FF080520A4B1A60BFF3D1
S214401D604F8FBFF36F8FE7E704F11000064DA8478B
S214401D7004F12400A847DFE76D184000152C40000A
S214401D80B918400004ED00E021174000F8B550B9FE
S214401D904FF0800372B683F31188BFF36F8FBFF3A3
S214401DA04F8F62B6FEE7064617460D4689B101FBE1
S214401DB000F05930124B98470446E8B94FF080037C
S214401DC072B683F31188BFF36F8FBFF34F8F62B63F
S214401DD0FEE758200A4B984704460028EED020607D
S214401DE0E663256401212046064B984784F85070E8
S214401DF0002363652046F8BD00F158030360EFE713
S214401E00C91A4000F91C40002DE9F04F85B00192F8
S214401E10B8B1044601B3022B2CD01D468846664B0B
S214401E209847002834D1019B002B38D04FF08003D0
S214401E3072B683F31188BFF36F8FBFF34F8F62B6CE
S214401E40FEE74FF0800372B683F31188BFF36F8FBF
S214401E50BFF34F8F62B6FEE7026C002ADBD04FF02E
S214401E60800372B683F31188BFF36F8FBFF34F8F33
S214401E7062B6FEE7E26B012ACFD04FF0800372B61F
S214401E8083F31188BFF36F8FBFF34F8F62B6FEE7C1
S214401E9000274A4EDFF850A1DFF82C9142E0002799
S214401EA0F7E72A4641462046454B9847636D9BB127
S214401EB029462046434B9847012807D14FF0805289
S214401EC0414B1A60BFF34F8FBFF36F8F3F4B98471E
S214401ED0012005B0BDE8F08F636A73B104F12400B9
S214401EE03B4B98470128F1D14FF08052364B1A6051
S214401EF0BFF34F8FBFF36F8FE8E70028E6D04FF071
S214401F008052314B1A60BFF34F8FBFF36F8FDDE7C0
S214401F102E4B98470020DCE720462E4B98472E4B0A
S214401F2098470127B047A26BE36B9A42B9D3022D7C
S214401F30B7D0019B002BEBD00FB902A8D047234B5C
S214401F409847264B9847B047636CB3F1FF3F01D1A3
S214401F5000236364A36CB3F1FF3F01D10023A36465
S214401F601A4B984701A902A81D4B9847E0B9B047BD
S214401F70D4F838B0E76B154B9847BB45CCD10199A0
S214401F8004F11000174B98472046124B9847124BC7
S214401F9098470028C5D14FF08053C9F80030BFF3AA
S214401FA04F8FBFF36F8FBCE720460A4B98470A4BCC
S214401FB0984700208DE700BF7D2D40006D184000FB
S214401FC01D1B4000A51B400004ED00E0B918400072
S214401FD0152C4000551C4000F92740009126400033
S214401FE0DD2C4000112B4000AD2C4000002836D0A0
S214401FF02DE9F041044600293CD0022B48D01E462D
S21440200015468846354B9847EFF311874FF08003C7
S21440201072B683F31188BFF36F8FBFF34F8F62B6EC
S214402020A26BE36B9A4201D3022E4FD13246414611
S21440203020462B4B9847A36CB3F1FF3F41D1636DCD
S214402040002B33D031462046264B9847002D3FD0B4
S21440205001283DD1286087F31188BDE8F0814FF014
S214402060800372B683F31188BFF36F8FBFF34F8F31
S21440207062B6FEE7006C0028BFD04FF0800372B611
S21440208083F31188BFF36F8FBFF34F8F62B6FEE7BF
S214402090E06B0128B3D04FF0800372B683F311880B
S2144020A0BFF36F8FBFF34F8F62B6FEE7636A8BB1A5
S2144020B004F124000C4B984775B168B101202860A4
S2144020C0C9E7A36C0133A3640120C4E70020C2E73C
S2144020D00120C0E70120BEE70120BCE7651A4000AA
S2144020E01D1B4000A51B4000152C40002DE9F04765
S2144020F084B0019298B10446E1B198460F46614BD0
S214402100984728BB019B53B34FF0800372B683F3C6
S2144021101188BFF36F8FBFF34F8F62B6FEE74FF065
S214402120800372B683F31188BFF36F8FBFF34F8F70
S21440213062B6FEE7026C002ADFD04FF0800372B62C
S21440214083F31188BFF36F8FBFF34F8F62B6FEE7FE
S21440215000264D4DDFF860A1DFF83C914BE00026AD
S214402160F7E7E56839462046484B9847B8F1000FF0
S2144021701DD1A36B013BA363236813B9444B984717
S214402180606023696BB104F11000424B9847012808
S21440219007D14FF08052404B1A60BFF34F8FBFF3CA
S2144021A06F8F3E4B9847012004B0BDE8F087E5604E
S2144021B0636A002BF5D004F12400364B984700287C
S2144021C0EFD04FF08052344B1A60BFF34F8FBFF3BF
S2144021D06F8FE6E7314B98470020E5E7A8476068F1
S2144021E02F4B98472D4B984730E020462D4B98472D
S2144021F02D4B98470126A847A36B002BB1D1019BD6
S214402200002BE7D00EB902A8D047244B9847274B5F
S2144022109847A847636CB3F1FF3F01D1002363643E
S214402220A36CB3F1FF3F01D10023A3641B4B984737
S21440223001A902A81E4B9847E8B9A847A66B174BBA
S2144022409847002ED1D12368002BC7D0019904F1BE
S2144022502400184B98472046124B9847124B9847F5
S2144022600028C7D14FF08053C9F80030BFF34F8FD6
S214402270BFF36F8FBEE720460A4B98470A4B9847F6
S214402280002091E77D2D40006D1840002D1C400039
S214402290FD2E4000152C400004ED00E0B91840002B
S2144022A09D2D4000551C4000F927400091264000D7
S2144022B0DD2C4000112B4000AD2C400010B40B4BE1
S2144022C01B6853B10123094C54F8332032B1013313
S2144022D0082BF9D15DF8044B70470023034A42F8B7
S2144022E0331002EBC3035860F4E700BFF40D402000
S2144022F070B504460D4616460F4B9847636CB3F1CF
S214402300FF3F0BD0A36CB3F1FF3F0AD00B4B98476F
S214402310A36B4BB120460A4B984770BD00236364BD
S214402320F0E70023A364F1E73246294604F124008F
S214402330044B9847EEE700BF6D184000B9184000C0
S214402340551C4000952B4000084B1B681B683BB152
S214402350064B1B68DB68DB685A68054B1A6070479B
S2144023604FF0FF32024B1A60704700BF800C40208F
S2144023702C0D402010B50F4B1B6858600E4B1B6849
S21440238098420ED304460D4B18680A4B1968043120
S2144023900B4B98470B4B1B689C4201D2094B1C6069
S2144023A010BD094B1868034B19680431044B984715
S2144023B010BD00BF7C0C4020740D4020800C402097
S2144023C0551740002C0D4020840C40202DE9F04F3E
S2144023D083B00C9DDDF834A00E9E60B1042D15D957
S2144023E04FF0800372B683F31188BFF36F8FBFF34D
S2144023F04F8F62B6FEE74FF0800372B683F31188C4
S214402400BFF36F8FBFF34F8F62B6FEE701909846DB
S21440241091460F4636B99000624B984706460028CC
S21440242000F09E8058205F4B98470446002800F0F6
S214402430948006634FEA8902A52130465A4B984756
S2144024406FF040464E44236B03EB860323F00706AB
S2144024503B7884F834303B78002B40F0848000276B
S21440246084F83D70E562A564E76404F104094846D3
S214402470DFF884B1D84704F11800D8472461C5F185
S2144024800503A3616462276584F854704246019947
S2144024903046464B98472060BAF1000F01D0CAF844
S2144024A00040434B9847434A136801331360424BFE
S2144024B01B68002B66D1404B1C601368012B21D152
S2144024C03E4F38463E4EB04707F11400B04707F13E
S2144024D02800B04707F13C00B04707F15000B0472E
S2144024E0DFF818814046B047364F3846B047364842
S2144024F0B0473648B0473648B047364BC3F80080FA
S214402500354B1F60354A1368013313602364E06A15
S214402510334A1168012383400B43136000EB80006D
S2144025204946264B03EB80002E4B98472E4B984748
S2144025302E4B1B68002B31D01F4B1B68DB6A9D421D
S2144025402ED94FF080522A4B1A60BFF34F8FBFF3FD
S2144025506F8F012003B0BDE8F08F3046254B98477B
S2144025604FF0FF30F6E73B4604F13402093759781E
S21440257002F8011F13F8011F00293FF470AFBB4259
S214402580F5D16CE7194B1B68002BBBD10A4B1B6877
S214402590DB6A9D42B6D3084B1C60B3E70120D9E7FF
S2144025A00120D7E7C91A4000D563400021184000F3
S2144025B06D184000EC0C40207C0C4020880C4020DD
S2144025C021174000180D4020340D4020600D40205B
S2144025D04C0D4020800C4020840C4020F80C4020BD
S2144025E0000D40203D174000B9184000480D4020DF
S2144025F004ED00E0F91A400037174000040D402073
S21440260010B584B0002303930293019300934FF4D4
S214402610006217491748184CA04701280BD020BB2A
S2144026204FF0800372B683F31188BFF36F8FBFF30A
S2144026304F8F62B6FEE7114B98470128EFD14FF017
S214402640800372B683F31188BFF36F8FBFF34F8F4B
S21440265062B64FF0FF320A4B1A600122094B1A60ED
S2144026600022094B1A60094B984704B010BD00BFC2
S214402670D8AE4000A9294000CD234000E92F4000B5
S2144026802C0D4020480D4020740D4020A1194000DC
S214402690024A136801331360704700BFF40C4020B1
S2144026A0014B1868704700BF740D40202DE9F04775
S2144026B0424B1B68002B78D1414B1A6801321A6096
S2144026C01E68D6B93F4B1B681B6853B14FF080035A
S2144026D072B683F31188BFF36F8FBFF34F8F62B626
S2144026E0FEE7384A1168384B186810601960374A58
S2144026F0136801331360364B9847364B1B689E422F
S21440270018D20024344B1B68DB6A03EB8303334A3E
S21440271052F82330022B28BF0124314B1B680BB9DB
S214402720304B9847304B1B68002B0CBF204601208F
S214402730BDE8F0870024DFF88C90DFF8B8802B4F98
S2144027401FE04FF0FF32234B1A60DBE7214A13604D
S214402750D8E705F11800C047E86A3A680123834085
S21440276013433B6000EB800051461C4B03EB80005C
S2144027701F4B9847184B1B68EA6ADB6A9A4228BF89
S2144027800124D9F800301B68002BDAD0D9F8003085
S214402790DB68DD686B689E42D8D305F1040A504674
S2144027A0C047AB6A002BD4D1D6E70D4A1368013335
S2144027B013600C4B98470024B4E700BFF40C40204D
S2144027C0740D4020800C4020840C4020300D40206A
S2144027D0492340002C0D40207C0C4020880C402093
S2144027E0F00C4020B5364000780D4020000D4020CB
S2144027F03D174000891740002DE9F843384B1B68C9
S21440280053B94FF0800372B683F31188BFF36F8FCE
S214402810BFF34F8F62B6FEE7324B9847304B1A688D
S214402820013A1A601B68002B55D12F4B1B68002BB2
S21440283032D100242D4B98472046BDE8F883FB68EC
S214402840DC6804F11800B04704F104084046B0477D
S214402850E06A2A680123834013432B6000EB800024
S214402860414609EB8000224B9847224B1B68E26AA0
S214402870DB6A9A420CD23B68002BE0D11E4B1B68A9
S214402880DBB11D4B1B68C3B11C4E1D4D1A4C0EE0F0
S21440289001221B4B1A60EEE71A4F1B4E1B4DDFF80A
S2144028A07490E8E72368013B236023682BB1B04768
S2144028B00028F7D001232B60F4E7114B1B68012B4F
S2144028C00BD14FF08052124B1A60BFF34F8FBFF3BD
S2144028D06F8F0124AEE70024ACE70024AAE700BFD0
S2144028E0F40C40206D184000EC0C4020B918400015
S2144028F03D1740007C0C4020F00C4020AD264000A8
S214402900780D4020340D402089174000000D4020AF
S21440291004ED00E0880C402010B5002829D004467D
S214402920184B1B6853B14FF0800372B683F311887F
S214402930BFF36F8FBFF34F8F62B6FEE7124B9847D9
S214402940124B1B681C44124B18680430114B9847B6
S21440295048B90F4B1A6810490B68D06A012282406A
S21440296023EA02030B6020460C4B98470C4B9847D3
S21440297038B94FF080520B4B1A60BFF34F8FBFF3FE
S2144029806F8F10BDF40C402091264000740D4020FF
S2144029907C0C402089174000000D402075234000E5
S2144029A0F927400004ED00E080B5DFF88880194E36
S2144029B0DFF884902AE0184B1B68012B1ED82B6842
S2144029C0002BF8D0C0473468B847002CF7D0134BDC
S2144029D09847F368DC68201D114B9847114A1368E6
S2144029E0013B13602B68013B2B600F4B9847206BD5
S2144029F0DFF848A0D0472046D047E0E74FF0805366
S214402A00C9F80030BFF34F8FBFF36F8F074D084FA5
S214402A10D5E700BF600D4020880C40206D18400070
S214402A2089174000EC0C4020B9184000FC0C4020B0
S214402A30F92740009126400004ED00E0F91A4000D6
S214402A402D4B1B68002B2CD110B500222B4B1A6047
S214402A502B4B1B681B6B1A68B2F1A53F03D15A6813
S214402A60B2F1A53F21D0264B186819683431254B62
S214402A709847254B1B68B3FA83F3DBB2C3F11F03B9
S214402A8003EB8301214A52F82120BAB94FF0800364
S214402A9072B683F31188BFF36F8FBFF34F8F62B662
S214402AA0FEE70122154B1A6070479A68B2F1A53FBF
S214402AB0D9D1DB68B3F1A53FD5D1DAE7134A9900FF
S214402AC0C81802EB800044686468446019440246B3
S214402AD00832944209D003EB83030C4A02EB83038B
S214402AE05B68DA68064B1A6010BD6068074A02EBFE
S214402AF081025060EFE700BFF40C4020780D402084
S214402B007C0C40209D364000000D4020880C402024
S214402B1038B5E0B10C46174D29681831164B984722
S214402B2028680430154B984740B92A6814490B6802
S214402B30D06A0122824023EA02030B60B4F1FF3FD1
S214402B4010D0104B186820440F4B984738BD4FF0B4
S214402B50800372B683F31188BFF36F8FBFF34F8F36
S214402B6062B6FEE7034B196804310848084B98479D
S214402B7038BD00BF7C0C40205517400089174000E8
S214402B80000D4020740D4020752340004C0D402021
S214402B903D174000E8B170B515460C46164E3168F4
S214402BA01831164B984730680430154B984740B953
S214402BB0326814490B68D06A0122824023EA020335
S214402BC00B60012D10D0104B186820440F4B9847CF
S214402BD070BD4FF0800372B683F31188BFF36F8FDA
S214402BE0BFF34F8F62B6FEE7034B196804310848BF
S214402BF0024B984770BD00BF7C0C40203D174000FC
S214402C0089174000000D4020740D40207523400079
S214402C104C0D402038B5C368DC6824B304F1180571
S214402C2028461A4B98471A4B1B683BBB251D28461F
S214402C30164B9847E06A174A1168012383400B43B6
S214402C40136000EB80002946134B03EB8000134BC8
S214402C509847134B1B68E26ADB6A9A4213D90120F5
S214402C60104B186038BD4FF0800372B683F311885E
S214402C70BFF36F8FBFF34F8F62B6FEE729460A4811
S214402C80064B9847E5E7002038BD00BF891740004F
S214402C90F40C4020000D4020880C40203D1740009A
S214402CA07C0C4020780D4020340D402030B1094A3D
S214402CB012680260084A1268426070474FF080030C
S214402CC072B683F31188BFF36F8FBFF34F8F62B630
S214402CD0FEE700BF300D4020740D402038B5C0B12F
S214402CE0044609B30D461D4B98471D4B1A682B6882
S214402CF0B3F1FF3F2ED01B4909682068884202D0B6
S214402D0061688A4228D26168501A834217D80124E3
S214402D101CE04FF0800372B683F31188BFF36F8FC9
S214402D20BFF34F8F62B6FEE74FF0800372B683F371
S214402D301188BFF36F8FBFF34F8F62B6FEE79B1AC3
S214402D400B442B602046084B98470024074B984777
S214402D50204638BD0024F9E70124F7E76D18400007
S214402D60740D4020300D4020AD2C4000B918400076
S214402D700122014B1A607047780D4020054B1B68B6
S214402D8033B1054B1B68002B0CBF02200020704758
S214402D9001207047480D4020F40C4020002844D0C5
S214402DA038B50446C26A21490968C96A8A4214D2BB
S214402DB08169002905DB1D490968C96AC1F1050119
S214402DC0816102EB82021A4901EB820261699142FB
S214402DD004D0164A1268D26AE26238BD251D2846DB
S214402DE0144B984770B9E36A03EB8301104A52F8D4
S214402DF021203AB910480268012101FA03F322EA79
S214402E0003030360094B1B68D86AE0620A4A1168EC
S214402E10012383400B43136000EB80002946044B9C
S214402E2003EB8000054B984738BD70477C0C40202C
S214402E30880C402089174000000D40203D17400078
S214402E4000284DD038B50446274A126890420AD02A
S214402E504FF0800372B683F31188BFF36F8FBFF3D2
S214402E604F8F62B6FEE7C26C52B94FF0800372B61F
S214402E7083F31188BFF36F8FBFF34F8F62B6FEE7C1
S214402E80013AC264C06AA16C88422BD052BB251D51
S214402E902846164B984768B9E16A01EB8102144B05
S214402EA053F8223033B91348036801228A4023EA94
S214402EB002030360A06CE062C0F10503A3610D4A03
S214402EC01168012404FA00F30B43136000EB800002
S214402ED02946074B03EB8000074B9847204638BDF2
S214402EE000207047002038BD7C0C402089174000E9
S214402EF0880C4020000D40203D174000054B1B68C5
S214402F0023B1044B1A68D36C0133D364014B186861
S214402F10704700BF7C0C402008B54160006191427C
S214402F200CD8D21A83699A4201D3012008BD011DEC
S214402F30094B1868094B9847002008BD9A4203D2AF
S214402F40994201D3012008BD011D054B1868034B6B
S214402F509847002008BD00BF800D40205517400010
S214402F607C0D402070B5154B9847154B1B6813B128
S214402F70144B984770BD144D2846144EB047144C19
S214402F802046B047134B1D60134B1C600022102197
S214402F900520124B98470A4B186018B11049114B40
S214402FA09847E5E74FF0800372B683F31188BFF386
S214402FB06F8FBFF34F8F62B6FEE700BF6D184000BD
S214402FC0B00D4020B9184000840D40202117400025
S214402FD0980D40207C0D4020800D40208D1D4000E7
S214402FE0E0AE4000BD22400010B584B00F4B98477D
S214402FF00F4B1B6873B10023039302930193042283
S21440300000924FF480520B490B480C4CA04708B135
S21440301004B010BD4FF0800372B683F31188BFF33F
S2144030206F8FBFF34F8F62B6FEE700BF652F40003D
S214403030B00D4020E8AE400069314000CD2340004E
S214403040D8B130B585B015460446154A106820B349
S2144030501A46009101950294052919DC114B9847B0
S21440306002284FF000030CBF089A1A4669460C48DF
S21440307000680D4CA04705B030BD4FF0800372B6D7
S21440308083F31188BFF36F8FBFF34F8F62B6FEE7AF
S21440309000236946054CA047EDE70020EBE700BF5C
S2144030A0B00D40207D2D4000091E4000ED1F400021
S2144030B02DE9F04782B08046244B98470746244B7C
S2144030C01B6898421BD30023C8F80030204B1F6073
S2144030D0384602B0BDE8F087002100910B465246C4
S2144030E020461C4CA04760B94FF0800372B683F36D
S2144030F01188BFF36F8FBFF34F8F62B6FEE7164D52
S214403100164E2B681A68C2B1DB68D3F800A0DC689C
S21440311004F104094846B047636A20469847E36985
S214403120012BEED1A36953449A45D5D263602461FE
S214403130494628680A4B9847E3E70A4A1068064912
S214403140086013600123C8F80030BFE7A12640009E
S214403150AC0D4020413040007C0D40208917400097
S21440316055174000800D40202DE9F04788B0754E39
S214403170754FDFF8FC91DFF8FC8133681A68002A47
S21440318000F0CE80DB681C68B84704A86F4B9847B1
S2144031900546049B002B44D1A04212D20022611B5C
S2144031A06B4B18686B4B98476B4B984700283AD147
S2144031B04FF08053C9F80030BFF34F8FBFF36F8F87
S2144031C031E0654B98473368DB68D3F80CA00AF1CA
S2144031D00400C047DAF81C30012B04D0DAF824305B
S2144031E0504698471FE0DAF8181023462A462144EE
S2144031F050465A4DA8470128F0D1002100910B4671
S21440320022465046564CA0470028E7D14FF0800350
S21440321072B683F31188BFF36F8FBFF34F8F62B6DA
S214403220FEE74D4B98474A4D4E4C06E007990698A8
S214403230059B9847049B002B09DA00231A4604A9ED
S2144032402868A047002898D0049B002BEEDBDDF8CA
S21440325018A0DAF8143013B10AF10400C04703A8E6
S2144032603A4B9847049B092BE7D801A252F823F023
S2144032709932400099324000993240003B3240003B
S214403280ED324000193340009932400099324000F8
S2144032903B324000ED324000059CDAF818102346D9
S2144032A00246214450462D4CA0470128BCD1DAF8AE
S2144032B0243050469847DAF81C30012BB4D1DAF85F
S2144032C01820002100910B46059802445046244C95
S2144032D0A0470028A8D14FF0800372B683F3118828
S2144032E0BFF36F8FBFF34F8F62B6FEE70599CAF8FC
S2144032F0181031B10346024601445046174CA047C9
S21440330092E74FF0800372B683F31188BFF36F8F56
S214403310BFF34F8F62B6FEE75046134B984783E79E
S214403320B84704A8094B98470546049B002B7FF4F2
S21440333078AF0E4B1B681A68B2FA82F25209002424
S2144033402DE700BF7C0D402091264000B130400064
S214403350B00D4020F1224000F9274000192F4000D0
S21440336041304000ED204000F91A4000800D4020DA
S21440337004ED00E0891740007047000080B582B039
S214403380244E254F44E04FF080413846234B984723
S21440339022E004212248234B9847012130461F4B08
S2144033A098471CE004211E481C4B98470121304694
S2144033B01C4B984716E0019B022B1CD0009B022B0F
S2144033C021D0194C00231A4669462868A047002891
S2144033D0F8D0009B012BD6D0019B002BD9D0019B67
S2144033E0012BDFD0009B002BE5D14FF080413846C3
S2144033F00C4B9847DFE7012130460A4CA047042192
S2144034000748A047DAE74FF080413846054B9847D3
S214403410064DD6E7000E0E4000120E40DB0E400072
S21440342000100E40D70E4000ED204000380E4020E1
S2144034302DE9F84FDFF870B0DFF870A0002423467F
S2144034404FF47A722146DBF80000D0470028F6D0C9
S2144034501148124B98470A274FF48076C8253146C4
S2144034600F48DFF84C90C84728460E4CA0473146D8
S2144034700B48DFF84080C0472846A04731460848FA
S214403480C8472846A04731460548C0472846A04773
S214403490013FE4D1D2E700BFDCAF40008964400082
S2144034A000120E4019294000340E4020ED20400006
S2144034B0DB0E4000D70E400008B5074B9847074D37
S2144034C02B46002211460648064CA0472B4614229F
S2144034D000210548A047FEE7090940000C004020AF
S2144034E060B040007108400070B04000F0B583B056
S2144034F005460C46002301932A4B984213D02A4B8C
S214403500984218D0294B98421DD0294B9D4222D034
S214403510284B9D4227D0284B9D422ED0274B9D427C
S21440352035D003B0F0BD1F46254E21463846B0473D
S2144035300028FAD1E9E71F46214E21463846B047D3
S2144035400028FAD1E4E71F461D4E21463846B047CC
S2144035500028FAD1DFE71F46194E21463846B047C5
S2144035600028FAD1DAE71E46164D01A93046A8478C
S2144035700028FAD1019B2370D3E71E46114D01A9BE
S2144035803046A8470028FAD1019B2370C9E71E465B
S2144035900C4D01A93046A8470028FAD1019B23705C
S2144035A0BFE700BF00080E40000A0E40001A0E405B
S2144035B0001C0E40004002400080024000C0024016
S2144035C04B1340005714400070B50C462A4B9842A7
S2144035D013D02A4B984219D0294B98421FD0294BDA
S2144035E0984225D0284B98422BD0284B984231D031
S2144035F0274B984237D0002070BD1E46254D2146A9
S2144036003046A8470028FAD1012070BD1E46214DFD
S21440361021463046A8470028FAD1012070BD1E46F4
S2144036201C4D21463046A8470028FAD1012070BDDF
S2144036301E46184D21463046A8470028FAD101209C
S21440364070BD1E46144D21463046A8470028FAD184
S214403650012070BD1E46104D21463046A847002822
S214403660FAD1012070BD1E460B4D21463046A84774
S2144036700028FAD1012070BD00080E40000A0E4016
S214403680001A0E40001C0E400040024000800240DF
S21440369000C00240391340004114400008B50A46B5
S2144036A001460248024B9847FEE700BF74B0400010
S2144036B08964400070474FF0800372B683F31188E8
S2144036C0BFF36F8FBFF34F8F62B6FEE700B587B08C
S2144036D08DF814008DF80410012102910392049392
S2144036E001A90348034B984740B207B05DF804FB76
S2144036F0000006408904400000B587B08DF81400ED
S2144037008DF80410012102910392049301A9034805
S214403710034B984740B207B05DF804FB00000640F4
S214403720DD03400030B585B029200E4CA0470E4B37
S214403730019349F64043029301A90C480C4B984725
S2144037401020A0470B4D4FF080524FF0C0512846F6
S214403750094CA0474FF000624FF0C0512846A047A2
S21440376005B030BDE512400000A3E1110000064060
S214403770A903400000140E40DF0E40002DE9F84F2C
S2144037800E461546184CA047804689463046A04708
S21440379006460F462846A04782468B46134C42466E
S2144037A04B4640464946A0478046894632463B46B9
S2144037B030463946A0470E4E02460B4640464946DE
S2144037C0B0478046894652465B4650465946A047D3
S2144037D002460B4640464946B047064B9847064B7E
S2144037E09847BDE8F88F00BF29504000D1504000B0
S2144037F06D4D40007D3D40003156400000000000C9
S2144038002DE9F04F2DED068BA7B0914B98476821D8
S2144038109048914B9847C0B2002838D08F48904B7C
S2144038209847012320AA752168208E4CA04700287F
S21440383031D08D488A4B9847012326AA02F8243D6A
S2144038406B216820894CA04760BB26AA002302F85B
S214403850243D01231C216820844CA04730BB26AA67
S214403860002302F8243D01231B2168207F4CA047FB
S21440387000BB03A87E4B9847002301939FED7DAA8B
S214403880DFF8E0A1DFED7C9A9FED7C9A18E07C485B
S214403890734B9847C5E79DF88020752179487A4B49
S2144038A09847C9E779486E4B9847CEE777486C4BC0
S2144038B09847D4E775486A4B9847DAE7B0EE48AA87
S2144038C001230DF197023B216820D047012325AA0A
S2144038D03C216820D04701230DF196023D21682007
S2144038E0D04701230DF1930240216820D0470123A1
S2144038F00DF195023F216820D04701230DF1920239
S21440390040216820D0479DF897209DF8943043EAA0
S21440391002230FFA83FB9DF896209DF8933043EAE6
S21440392002231BB208EE103A9DF895209DF892307F
S21440393043EA02231BB208EE903A01230DF19102AE
S21440394043216820D04701230DF18E024421682090
S214403950D047012324AA45216820D04701230DF1F2
S2144039608D0248216820D04701230DF18F02472160
S2144039706820D047012323AA48216820D0479DF8D5
S2144039809170FFB29DF88E40E4B29DF890805FFA49
S21440399088F89DF88D50EDB29DF88F905FFA89F9C2
S2144039A09DF88C60F6B2F8EEE88AB8EEC88A07EE64
S2144039B090BAF8EEE77A28EEA97A17EE102A28EEA3
S2144039C0297A17EE101A67EEA97A17EE900ADFF8F2
S2144039D0CCB0D84708EE100A46EA092636B207EEBB
S2144039E0906AF8EEE76A45EA08252DB207EE905A47
S2144039F0B8EEE77A44EA072424B207EE904AF8EE97
S214403A00E77A86EE896A16EE102AC7EE096A16EE3F
S214403A10901A87EE897A17EE100AD84778EE4A7AD7
S214403A2017EE900A1A4B984707A3D3E90023194C80
S214403A30A04700283FF442AF019B0133019319464B
S214403A401548114B984739E7CDCCCCCCCCCCEC3F85
S214403A50253740000000064029054000E8AF4000FA
S214403A604D654000F936400018B04000CD36400065
S214403A70610640000000000000008038000003435C
S214403A8000B0400030B040008964400044B0400080
S214403A9029504000F15540005CB040007D37400062
S214403AA080B58AB06A4B98476A4B98470C206A4D57
S214403AB0A8476A4F00234FF480724FF06051384653
S214403AC0674EB0470A20A847664C002301224FF0B5
S214403AD060512046B0470C20A84700234FF0804254
S214403AE04FF060513846B0470B20A84700230422C9
S214403AF04FF060515C48B0475C4B4FF480621A60B0
S214403B00802283F80A2309234FF400624FF02051A5
S214403B102046B0473C224FF400612046544B98471D
S214403B204FF400612046534B9847534B0093502325
S214403B304FF400620A212046504CA047504E514B4D
S214403B401E60514A514B1A60514A524B1A604FF40C
S214403B50E1330493C02305934FF400630693002497
S214403B60079408940E20A8474B4A04A930464B4B6E
S214403B70984730464A4B984730464A4B98474A4EB5
S214403B80336821469868494DA847336821465868A7
S214403B90A847336821469868A8470394029401943E
S214403BA0009423464FF4C06241494248424CA047E5
S214403BB0012802D04148424B984700230393029382
S214403BC0019300934FF4C0623E493F483A4CA047A9
S214403BD0012802D03D483A4B98470023039302936E
S214403BE0019300934FF4C06239493A48324CA0479B
S214403BF0012802D03848324B98470023039302935B
S214403C00019300934FF4C062344935482A4CA0478C
S214403C10012802D033482A4B98470322002101202E
S214403C20314B9847314B186050B100220821642030
S214403C302D4B98472E4B186030B12E4B9847FEE7D9
S214403C402D481F4B9847F0E72C481D4B9847F4E704
S214403C50290C4000250D4000E512400000120E40A1
S214403C60D10F4000000E0E4000100E4000E100E074
S214403C70BD0E40009310400079334000F1104000E4
S214403C8000800240F00D4020C9354000EC0D402039
S214403C90ED344000E80D402080D1F008E1134000AC
S214403CA0351440003B144000280040208165400009
S214403CB0F0AE4000B9344000CD234000F8AE40009E
S214403CC04D65400014AF40000138400018AF40003A
S214403CD034AF40003134400040AF400064AF400055
S214403CE07D33400070AF40008D1D4000340E4020B4
S214403CF0380E40200126400094AF4000B0AF400050
S214403D0000B51D4A20F00043934283B019DDB3F15D
S214403D10FF4F05DB014601F0DFFC03B05DF804FB16
S214403D20694600F045F900F00300012818D0022843
S214403D300ED0D0B10199009800F0A8FA00F10040EA
S214403D40EBE70022002100F0EBFE03B05DF804FB39
S214403D5001220199009800F0E3FE00F10040DCE704
S214403D600199009800F092FAD7E70122019900984D
S214403D7000F0D6FED1E700BFD80F493F2DE9F04FFF
S214403D808BB004460D4600F057F8294B93F900A037
S214403D90BAF1FF3F06460F4612D022462B46204633
S214403DA0294601F02FFC834650B94FF000084FF0EB
S214403DB0000942464B462046294601F0FBFB20B907
S214403DC0304639460BB0BDE8F08F1A4BCDF820B0E0
S214403DD00122CDE90445CDE902458DE80C00BAF153
S214403DE0000F17D042464B464046494601F09AFAE5
S214403DF0BAF1020FCDE906010ED101F063FF21238F
S214403E000360089B73B9DDE90667304639460BB058
S214403E10BDE8F08FCDE90689684600F0F7FE002839
S214403E20EFD1EAE701F04EFF089B0360EBE700BFE7
S214403E30240040208CB040002DE9F8435B4F8F4370
S214403E4005460C4600F0928000290B4602466FDD80
S214403E500F157BD0A7F2FF37C3F31303F80743F4DD
S214403E6080135CD403EBD27100260B447F105200C3
S214403E70B64616204FF400110EEB01049C424FEA62
S214403E80D2754FEA420203DC1B1B04EB010E0E44C4
S214403E90013805EB43034FEA5101EDD18446202417
S214403EA04FF0004109E020D003EBD275013C4FEAC9
S214403EB051012B444FEA420220D0734501EB0C05DA
S214403EC0F1DD002D05EB010C09DBF0469542A3EB36
S214403ED00E0300D9013B521B0844C646E4E7BCF13A
S214403EE0000FF2DB0EF10108F0E79542DCD8002D1A
S214403EF005EB010C44DB98460023ECE7134313D153
S214403F004008731003F17F5303F50013F20703EBE9
S214403F10075948BF40F000404946BDE8F8835B007B
S214403F2003EBD27352009DE7411C2DD00130E7E7EA
S214403F30064621F000473E43EFD069BB0F46D30A02
S214403F40153F5205002BFAD0DE0220D4002400E0B4
S214403F5004465B00DD0204F10100F9D5C0F1200102
S214403F6022FA01F10B433F1B824073E702460B46A1
S214403F7001F0AEF82A46234600F0F8FEBDE8F88386
S214403F80BCF1000FAEDAB6E701362046B9E70020AE
S214403F9020214FF0FF34E3E702460B4600F0E4FEF4
S214403FA002460B4601F0BEF9B7E700BF0000F07FBF
S214403FB02DE9F04FA84A20F00044944289B06EDDC7
S214403FC0A64A944206460D461CDC0028A44940F307
S214403FD0FC8001F081FBA34B24F00F049C42064674
S214403FE06CD0A14901F078FB01462860304601F0CC
S214403FF073FB9D4901F070FB01276860384609B0A5
S214404000BDE8F08F994A94426ADDB4F1FF4F4EDA2C
S214404010E715863FA4EBC754204601F02DFE01F07D
S21440402011FC034601462046059301F055FB4FF030
S214404030874101F05BFC804601F01EFE01F002FC69
S214404040014604464046069401F046FB4FF0874141
S21440405001F04CFC0021079001F0DCFD002800F048
S214404060CB802046002101F0D5FD002814BF012357
S21440407002237F4A019202213A46009105A829462A
S21440408000F0C8F9002E07460DDA95E80C0002F15C
S214404090004203F1004347422A606B6003E000227F
S2144040A008604A600027384609B0BDE8F08F0146F0
S2144040B001F012FB002768602860F4E76D4901F0C4
S2144040C00BFB6D49044601F007FB0146286020467D
S2144040D001F002FB684901F0FFFA01276860E2E759
S2144040E000F096FD6549804601F000FC4FF07C519B
S2144040F001F0F4FA01F0C0FD074601F0A3FB584971
S214404100834601F0F3FB0146404601F0E5FA564986
S2144041108146584601F0EAFB1F2F824621DC584A6A
S214404120791E24F0FF0352F82120934219D05146BD
S214404130484601F0D1FA8046C5F8008041464846D8
S21440414001F0CAFA514601F0C7FA002E6860AADAB2
S21440415008F1004800F10040C5F8008068607F42E2
S214404160A1E75146484601F0B7FAE215C0F3C753F7
S214404170D31A082B8046DFDD3E490392584601F0AD
S214404180B5FB80460146484601F0A6FA014604467D
S214404190484601F0A1FA414601F09EFA364980466B
S2144041A0584601F0A3FB414601F096FA0146824686
S2144041B0204601F091FA039AC0F3C753D21A192A3F
S2144041C080462EDC2860A146B8E701F087FA254BEA
S2144041D024F00F049C42064610D0234901F07EFA94
S2144041E001462860304601F077FA1F4901F076FA1A
S2144041F04FF0FF37686056E703233AE71D4901F062
S2144042006DFA1D49044601F069FA014628602046C9
S21440421001F062FA184901F061FA4FF0FF37686022
S21440422041E71849584601F061FB01468046204662
S21440423001F052FA01468146204601F04DFA4146C9
S21440424001F04AFA10490446584601F04FFB214611
S21440425001F042FA82466AE7D80F493FE3CB164060
S214404260800FC93FD00FC93F43443537800F49437D
S21440427014B140000044353708A3852E84F9223F08
S21440428094B0400000A3852E32318D242DE9F843AA
S21440429020F00044B4F1485F06460F4649DA01F084
S2144042A0EBFC002800F09D803146304601F01EFBB6
S2144042B04E49054601F01AFB4D4901F00FFA2946D2
S2144042C001F014FB4B4901F007FA294601F00EFBBA
S2144042D0494901F003FA294601F008FB474901F035
S2144042E0FBF9294601F002FB454901F0F7F929465A
S2144042F001F0FCFA80464FF07C51284601F0F6FA71
S21440430041460446284601F0F1FA3946054630460D
S21440431001F0ECFA0146284601F0DEF90146204657
S21440432001F0DAF901464FF07E5001F0D5F9BDE8CC
S214404330F883014601F0DAFA2C49054601F0D6FA30
S2144043402B4901F0CBF9294601F0D0FA294901F072
S214404350C3F9294601F0CAFA274901F0BFF92946B0
S21440436001F0C4FA254901F0B7F9294601F0BEFA32
S214404370234901F0B3F9294601F0B8FA214B9C4293
S2144043808046B8DD204B9C4227DC04F17F44214622
S2144043904FF07E5001F0A0F981464FF07C51284600
S2144043A001F0A4FA214601F097F941460446284612
S2144043B001F09CFA39460546304601F097FA014628
S2144043C0284601F089F90146204601F085F9014664
S2144043D0484601F081F9BDE8F883DFF834900B4C8D
S2144043E0DBE74FF07E50BDE8F88300BF4ED747ADC1
S2144043F0F6740F317CF29334010DD037610BB63A28
S214404400ABAA2A3D9999993E0000483F0000903E4D
S2144044100000383F2DE9F04FDDB0904C0893013B4B
S2144044200193D31E48BF131D669D0791DB1023EAF8
S214404430E37354F82540099319460133A2EBC303AE
S2144044400594019A0493059B02909C18A1EB0206E2
S21440445017D43444002501341FAFDDF89C8108E0B2
S21440446058F8260001F0EEF90136A64247F8040F48
S21440447007D0002EF4DA01362846A64247F8040F45
S214404480F7D1059B002B28DB089B9E00029B351F1F
S2144044901D4420AB1E44059B48AA4FF0000902EB82
S2144044A0830847AF019B002BC0F2B982029BB346FC
S2144044B01C1FCA465BF8041D54F8040F01F016FA98
S2144044C00146504601F00AF9AC428246F2D147F81E
S2144044D004AF474506F10406E4D105980899029CC6
S2144044E06FF04042034613449B000A440DF1300AE5
S2144044F0191F04EB820553440AEB01020A920B9300
S21440450080464FEA88035CAA0393D318B8F1000F9D
S21440451053F8509C22DD02EB8804543C0BAE47AF68
S2144045204FF06E51484601F0E1F901F0A5FB01F06D
S21440453089F94FF08741834601F0D8F9014648464D
S21440454001F0CAF801F098FB54F8041946F8040F35
S214404550584601F0C3F8BC428146E1D1049E484625
S214404560314600F09FFB4FF07851044601F0BEF90B
S21440457000F052FB4FF0824101F0B8F90146204668
S21440458001F0AAF8044601F077FB8146069001F058
S21440459059F90146204601F09FF8002E074640F3A1
S2144045A0E68008F1FF31C6F108035AF8212042FAA6
S2144045B003F000FA03F3D31A4A46C6F1070402444E
S2144045C04AF82130069243FA04F4002C5BDD069B41
S2144045D0B8F1000F03F10103069340F33B82DAF88B
S2144045E00060002E40F09482B8F1010F40F35582EF
S2144045F05246012352F8046F002E00F04A82591C9E
S214404600C6F5807688454AF8236014DD5AF821209E
S2144046100233C2F1FF0298454AF821200BDD039A87
S21440462052440AEB830391461A68C2F1FF0243F8EC
S214404630042B4B45F8D1049B002B11DD049B012B2A
S2144046404FF0010640F00E8208F1FF325AF8223051
S21440465003F07F034AF822300EE200BF58B4400011
S214404660022C10D139464FF07E5001F035F80746FF
S21440467004994FF07E5000F015FB0146384601F095
S2144046802BF8022407460021384601F0C3FA0028DA
S21440469000F08380059B08F1FF37BB420FDC08F132
S2144046A08043013B0B980AEB8303002253F804191E
S2144046B0834242EA0102F9D1002A40F09D80059BE0
S2144046C0013B5AF82330002B40F0F4810A9A01232C
S2144046D052F8041901330029FAD043441A46069387
S2144046E008F10103934237DC0899099A01EB080761
S2144046F020A901EB870706999E1801EB020906F1EF
S2144047008046679A013E02EB860648AA02EB83087B
S214404710679B03EB8903039356F8040F01F092F866
S214404720019B47F8040B002B19DB029BBB461C1F62
S2144047304FF000095BF8041D54F8040F01F0D6F85A
S2144047400146484600F0CAFFAC428146F2D1039B80
S21440475048F8049B9E42DFD1DDF81880D1E6039BE3
S2144047604FF000099E4248F8049BD5D1F4E705D1A6
S21440477008F1FF335AF82340241226E74FF07C51C5
S21440478001F066FA002840F053810446002138467E
S21440479001F040FA00287FF47DAF049E384671420F
S2144047A000F080FA4FF08741A146044601F050FAE7
S2144047B0002800F08D814FF06E51204601F096F8AB
S2144047C001F05AFA01F03EF84FF08741054601F0F5
S2144047D08DF80146204600F07FFF01F04DFA4AF87A
S2144047E02800284601F048FA08F101073346083306
S2144047F004934AF8270012E0049A5AF82730083AF9
S214404800A14604925BB907F18043013B0AEB830360
S21440481053F80419013F083A0029F9D00492049944
S2144048204FF07E5000F03EFA002F0446C0F25C8106
S214404830BB0048A91A1D01EB0308019302924FF0F2
S2144048406E560AEB020B08F104055BF8040D00F007
S214404850F9FF214601F04AF8314645F8040D204656
S21440486001F044F8D3450446EFD10026DDF814B0F5
S2144048700397A8F10408B246BBF1000FB8BF002565
S21440488015DBA54EA54847460025002403E05445C1
S2144048900DDC56F8040F57F8041F01F027F80146C0
S2144048A0284600F01BFF0134A3450546EFDA5CAB13
S2144048B003EB8A03A8F1040843F8A05C46AB4345E3
S2144048C00AF1010AD8D1669B039F032B5AD8DFE82A
S2144048D003F08E5F5F02002F40F30481019A5CA9CB
S2144048E08B1834AC53F8A06CA51855F804AC314678
S2144048F0504600F0F3FE80460146504600F0ECFE7F
S214404900314600F0EBFE286045F8048DAC42464642
S214404910EBD1012F40F3E680019A5CA98B18144432
S21440492053F8A06C25460DF1D40A55F8048C314650
S214404930404600F0D3FE07460146404600F0CCFE17
S214404940314600F0CBFE286045F8047DAA453E4639
S214404950EBD10020043436AD54F8041D00F0BEFE02
S214404960A542F9D1B9F1000F00F0B980349A359BD1
S21440497000F1004002F1004203F10043079CA060B2
S21440498022606360069B03F007005DB0BDE8F08FD1
S214404990019C34AD04342C44002054F8041D00F02F
S2144049A09DFEAC42F9D1B9F1000F00F08580079A20
S2144049B000F1004301461360349800F08DFE002F4E
S2144049C00BDD34AD0124013455F8041F00F086FE9B
S2144049D0A742F8DAB9F1000F01D000F10040079B7A
S2144049E05860069B03F007005DB0BDE8F08F029B61
S2144049F034AD2B4400201C4654F8041D00F06EFED7
S214404A00A542F9D1B9F1000F01D000F10040079B53
S214404A101860069B03F007005DB0BDE8F08FCA46FD
S214404A2047F804AF474506F104067FF43BAD54E52E
S214404A30069BB8F1000F03F101030693C8BF02249A
S214404A403FF7CDAD39464FF07E5000F045FE02248C
S214404A50074618E6049B002B22DD0026049B012B0C
S214404A603FF4F2AD022B07D108F1FF325AF822305C
S214404A7003F03F034AF82230022C7FF404AE394656
S214404A804FF07E5000F028FE0746002E3FF4FBAD68
S214404A90EEE5013398457FF4ADAD049B002BDDDC9D
S214404AA0022C7FF4F0AD39464FF07E5000F014FEF5
S214404AB00746E8E5012310E6079B01461860349850
S214404AC000F00AFE002F3FF77CAF079B586088E750
S214404AD0204601F0D1F847464AF828009FE6349A27
S214404AE0359B4BE700203DE7669B032B3FF64AAFDE
S214404AF001A252F823F000BF0D4B4000094B400086
S214404B00094B4000E54A400000204CE7002079E78A
S214404B100121002374E500BF2CB440000000C93FCB
S214404B202DE9F84320F00043B3F1485F04460F46B2
S214404B30904603DA01F0A0F8002858D021462046D7
S214404B4000F0D4FE05460146204600F0CFFE294937
S214404B500646284600F0CAFE274900F0BDFD294615
S214404B6000F0C4FE254900F0B9FD294600F0BEFE1F
S214404B70234900F0B1FD294600F0B8FE214900F077
S214404B80ADFD8146B8F1000F22D04FF07C5138463B
S214404B9000F0ACFE49468046304600F0A7FE01468F
S214404BA0404600F099FD294600F0A0FE394600F048
S214404BB093FD15490546304600F098FE01462846C6
S214404BC000F08CFD0146204600F086FDBDE8F883E7
S214404BD00146284600F08AFE0B4900F07DFD31462E
S214404BE000F084FE214600F079FDBDE8F8832046BB
S214404BF0BDE8F883D3C92E2F342FD7321BEF383673
S214404C00010D50398988083CABAA2A3E00207047DF
S214404C1020F00040704700BF2DE9F04120F00047EB
S214404C20FC0D7F3C162C054613DC002C80461BDB17
S214404C30194F2741384214D0184900F04FFD002143
S214404C4001F010F868B1002D1BDB28EA0700BDE82C
S214404C50F081B7F1FF4F04D3014600F03FFDBDE8B9
S214404C60F0812846BDE8F0810C4900F037FD002170
S214404C7000F0F8FF0028F4D0002D08DB0020BDE847
S214404C80F0814FF4000343FA04F4A044DDE7002F1C
S214404C90E7D00348BDE8F081FFFF7F00CAF24971C4
S214404CA0000080BF30F0004238B5034616D0B2F15F
S214404CB0FF4F0FD2B2F5000F0D4610D30446D00D6D
S214404CC02844FE282EDC00281DDD24F0FF4444EA5C
S214404CD0C05038BD014600F001FD38BD38BD4FF02C
S214404CE0984100F003FE184A9542034607DB044607
S214404CF0C0F3C7501938E3E7144800F02BF81349BF
S214404D0000F0F4FD38BD10F1160F13DA4CF25032B5
S214404D1095421946F0DD0E4800F01CF80C4900F0AC
S214404D20E5FD38BD19460A4800F014F8084900F079
S214404D30DDFD38BD24F0FF44193044EAC0504FF042
S214404D404C5100F0D3FD38BDB03CFFFF6042A20D91
S214404D50CAF2497101F0004120F000400843704714
S214404D6081F0004102E000BF83F0004330B54FEAD7
S214404D7041044FEA430594EA050F08BF90EA020F44
S214404D801FBF54EA000C55EA020C7FEA645C7FEAD7
S214404D90655C00F0E2804FEA5454D4EB5555B8BFFA
S214404DA06D420CDD2C4480EA020281EA030382EA6B
S214404DB0000083EA010180EA020281EA0303362DFD
S214404DC088BF30BD11F0004F4FEA01314FF4801CD0
S214404DD04CEA113102D0404261EB410113F0004FE2
S214404DE04FEA03334CEA133302D0524263EB430399
S214404DF094EA050F00F0A780A4F10104D5F1200E37
S214404E000DDB02FA0EFC22FA05F2801841F1000191
S214404E1003FA0EF2801843FA05F359410EE0A5F165
S214404E2020050EF1200E012A03FA0EFC28BF4CF096
S214404E30020C43FA05F3C01851EBE37101F000454C
S214404E4007D54FF0000EDCF1000C7EEB00006EEB59
S214404E500101B1F5801F1BD3B1F5001F0CD34908E3
S214404E605FEA30004FEA3C0C04F101044FEA44523A
S214404E7012F5800F80F09A80BCF1004F08BF5FEAC1
S214404E80500C50F1000041EB045141EA050130BDA1
S214404E905FEA4C0C404141EB010111F4801FA4F144
S214404EA00104E9D191F0000F04BF01460020B1FA99
S214404EB081F308BF2033A3F10B03B3F120020CDAD1
S214404EC00C3208DD02F1140CC2F10C0201FA0CF0AF
S214404ED021FA02F10CE002F11402D8BFC2F1200C14
S214404EE001FA02F120FA0CFCDCBF41EA0C019040CA
S214404EF0E41AA2BF01EB0451294330BD6FEA040413
S214404F001F3C1CDA0C340EDC04F11404C4F12002FD
S214404F1020FA04F001FA02F340EA030021FA04F30F
S214404F2045EA030130BDC4F10C04C4F1200220FA66
S214404F3002F001FA04F340EA0300294630BD21FAA4
S214404F4004F0294630BD94F0000F83F4801306BF6A
S214404F5081F480110134013D4EE77FEA645C18BF5E
S214404F607FEA655C29D094EA050F08BF90EA020FF5
S214404F7005D054EA000C04BF1946104630BD91EAED
S214404F80030F1EBF0021002030BD5FEA545C05D1F0
S214404F904000494128BF41F0004130BD14F580042F
S214404FA03CBF01F5801130BD01F0004545F0FE41A3
S214404FB041F470014FF0000030BD7FEA645C1ABFD8
S214404FC0194610467FEA655C1CBF0B46024650EA0F
S214404FD0013406BF52EA033591EA030F41F400213B
S214404FE030BD00BF90F0000F04BF0021704730B5C1
S214404FF04FF4806404F132044FF000054FF0000196
S21440500050E700BF90F0000F04BF0021704730B556
S2144050104FF4806404F1320410F0004548BF40422B
S2144050204FF000013EE700BF42004FEAE2014FEA80
S21440503031014FEA02701FBF12F07F4393F07F4F5B
S21440504081F06051704792F0000F14BF93F07F4F8D
S214405050704730B54FF4607401F0004521F00041D0
S21440506020E700BF50EA010208BF704730B54FF056
S21440507000050AE050EA010208BF704730B511F05B
S214405080004502D5404261EB41014FF4806404F193
S21440509032045FEA915C3FF4DCAE4FF003025FEA15
S2144050A0DC0C18BF03325FEADC0C18BF033202EB9D
S2144050B0DC02C2F1200300FA03FC20FA02F001FAF7
S2144050C003FE40EA0E0021FA02F11444C1E600BF96
S2144050D070B54FF0FF0C4CF4E06C1CEA11541DBF49
S2144050E01CEA135594EA0C0F95EA0C0F00F0DEF814
S2144050F02C4481EA030621EA4C5123EA4C5350EAF9
S214405100013518BF52EA033541F4801143F4801349
S21440511038D0A0FB02CE4FF00005E1FB02E506F0DA
S2144051200042E0FB03E54FF00006E1FB03569CF02F
S214405130000F18BF4EF0010EA4F1FF04B6F5007F35
S21440514064F5407404D25FEA4E0E6D4146EB0606A7
S21440515042EAC62141EA55514FEAC52040EA5E5030
S2144051604FEACE2EB4F1FD0C88BFBCF5E06F1ED8DA
S214405170BEF1004F08BF5FEA500E50F1000041EB11
S214405180045170BD06F0004646EA010140EA0200BE
S21440519081EA0301B4EB5C04C2BFD4EB0C0541EAE0
S2144051A0045170BD41F480114FF0000E013C00F3F5
S2144051B0AB8014F1360FDEBF002001F0004170BD19
S2144051C0C4F10004203C35DA0C341BDC04F1140432
S2144051D0C4F1200500FA05F320FA04F001FA05F2BE
S2144051E040EA020001F0004221F0004110EBD3708B
S2144051F021FA04F642EB06015EEA430E08BF20EAB7
S214405200D37070BDC4F10C04C4F1200500FA04F359
S21440521020FA05F001FA04F240EA020001F00041EB
S21440522010EBD37041F100015EEA430E08BF20EA5E
S214405230D37070BDC4F1200500FA05F24EEA020EA6
S21440524020FA04F301FA05F243EA020321FA04F0D5
S21440525001F0004121FA04F220EA020000EBD3708C
S2144052605EEA430E08BF20EAD37070BD94F0000F8C
S2144052700FD101F00046400041EB010111F4801FC0
S21440528008BF013CF7D041EA060195F0000F18BF71
S214405290704703F00046520043EB030313F4801FAD
S2144052A008BF013DF7D043EA0603704794EA0C0F67
S2144052B00CEA135518BF95EA0C0F0CD050EA41067D
S2144052C018BF52EA4306D1D181EA030101F00041FA
S2144052D04FF0000070BD50EA410606BF1046194622
S2144052E052EA430619D094EA0C0F02D150EA01362E
S2144052F013D195EA0C0F05D152EA03361CBF10466F
S21440530019460AD181EA030101F0004141F0FE410D
S21440531041F470014FF0000070BD41F0FE4141F491
S214405320780170BD70B54FF0FF0C4CF4E06C1CEA91
S21440533011541DBF1CEA135594EA0C0F95EA0C0F46
S21440534000F0A7F8A4EB050481EA030E52EA033501
S2144053504FEA013100F088804FEA03334FF0805522
S21440536045EA131343EA12634FEA022245EA11154F
S21440537045EA10654FEA00260EF000419D4208BF00
S214405380964244F1FD0404F5407402D25B084FEAAD
S2144053903202B61A65EB03055B084FEA32024FF459
S2144053A080104FF4002CB6EB020E75EB030E22BFB6
S2144053B0B61A754640EA0C005B084FEA3202B6EB76
S2144053C0020E75EB030E22BFB61A754640EA5C0025
S2144053D05B084FEA3202B6EB020E75EB030E22BFB5
S2144053E0B61A754640EA9C005B084FEA3202B6EBB6
S2144053F0020E75EB030E22BFB61A754640EADC0075
S21440540055EA060E18D04FEA051545EA16754FEAD6
S21440541006164FEAC30343EA52734FEAC2025FEAF4
S2144054201C1CC0D111F4801F0BD141EA00014FF083
S21440543000004FF0004CB6E711F4801F04BF014354
S2144054400020B4F1FD0C88BFBCF5E06F3FF6AFAE70
S214405450B5EB030C04BFB6EB020C5FEA500C50F100
S214405460000041EB045170BD0EF0004E4EEA113183
S21440547014EB5C04C2BFD4EB0C0541EA045170BD8A
S21440548041F480114FF0000E013C90E645EA060ECE
S2144054908DE60CEA135594EA0C0F08BF95EA0C0FFC
S2144054A03FF43BAF94EA0C0F0AD150EA01347FF444
S2144054B034AF95EA0C0F7FF425AF104619462CE71B
S2144054C095EA0C0F06D152EA03353FF4FDAE10467E
S2144054D0194622E750EA410618BF52EA43067FF4CF
S2144054E0C5AE50EA41047FF40DAF52EA43057FF45F
S2144054F0EBAE12E74FF0FF3C06E000BF4FF0010C6A
S21440550002E000BF4FF0010C4DF804CD4FEA410CCD
S2144055107FEA6C5C4FEA430C18BF7FEA6C5C1BD09A
S21440552001B050EA410C0CBF52EA430C91EA030F1B
S21440553002BF90EA020F0020704710F1000F91EA78
S214405540030F58BF994208BF90422CBFD8176FEA46
S214405550E37040F0010070474FEA410C7FEA6C5C14
S21440556002D150EA013C07D14FEA430C7FEA6C5C1B
S214405570D6D152EA033CD3D05DF8040B704700BF47
S2144055808446104662468C461946634600E000BF95
S21440559001B5FFF7B7FF002848BF10F1000F01BD67
S2144055A04DF808EDFFF7F4FF0CBF012000205DF832
S2144055B008FB00BF4DF808EDFFF7EAFF34BF0120B7
S2144055C000205DF808FB00BF4DF808EDFFF7E0FF50
S2144055D094BF012000205DF808FB00BF4DF808EDA1
S2144055E0FFF7CEFF94BF012000205DF808FB00BF08
S2144055F04DF808EDFFF7C4FF34BF012000205DF8EA
S21440560008FB00BF4FEA410C7FEA6C5C02D150EACF
S214405610013C0AD14FEA430C7FEA6C5C02D152EA65
S214405620033C02D14FF0000070474FF00100704736
S2144056304FEA4102B2F1E04324BFB3F5001CDCF16F
S214405640FE5C0DD901F0004C4FEAC0024CEA5070A7
S214405650B2F1004F40EB830008BF20F001007047D6
S21440566011F0804F21D113F13872BCBF01F00040D9
S214405670704741F480114FEA5252C2F11802C2F10B
S214405680200C10FA0CF320FA02F018BF40F001008C
S2144056904FEAC1234FEAD32303FA0CFC40EA0C003E
S2144056A023FA02F34FEA4303CCE77FEA625307D17B
S2144056B050EA01331EBF4FF0FE4040F440007047B2
S2144056C001F0004040F0FE4040F40000704700BF4C
S2144056D080F0004002E000BF81F0004142001FBF62
S2144056E05FEA410392EA030F7FEA226C7FEA236C6B
S2144056F06AD04FEA1262D2EB1363C1BFD218414060
S21440570048404140B8BF5B42192B88BF704710F0F5
S214405710004F40F4000020F07F4018BF404211F098
S214405720004F41F4000121F07F4118BF494292EA00
S214405730030F3FD0A2F1010241FA03FC10EB0C002C
S214405740C3F1200301FA03F100F0004302D54942B9
S21440575060EB4000B0F5000F13D3B0F1807F06D366
S21440576040084FEA310102F10102FE2A51D2B1F15E
S214405770004F40EBC25008BF20F0010040EA030053
S2144057807047490040EB000010F4000FA2F1010200
S214405790EDD1B0FA80FCACF1080CB2EB0C0200FA8A
S2144057A00CF0AABF00EBC25052421843BCBFD040D8
S2144057B01843704792F0000F81F4000106BF80F452
S2144057C000000132013BB5E74FEA41037FEA226C15
S2144057D018BF7FEA236C21D092EA030F04D092F0E0
S2144057E0000F08BF0846704790EA010F1CBF002014
S2144057F0704712F07F4F04D1400028BF40F0004071
S214405800704712F100723CBF00F50000704700F090
S214405810004343F0FE4040F4000070477FEA2262B7
S21440582016BF08467FEA23630146420206BF5FEA88
S214405830412390EA010F40F4800070474FF0000388
S21440584004E000BF10F0004348BF40425FEA000C4F
S21440585008BF704743F0964301464FF000001CE0F7
S21440586050EA010208BF70474FF000030AE000BF4D
S21440587050EA010208BF704711F0004302D540428B
S21440588061EB41015FEA010C02BF844601460020FD
S21440589043F0B64308BFA3F18053A3F50003BCFA18
S2144058A08CF2083AA3EBC25310DB01FA02FC6344C5
S2144058B000FA02FCC2F12002BCF1004F20FA02F2CC
